{
  "contractName": "Identity",
  "abi": [
    {
      "constant": true,
      "inputs": [
        {
          "name": "",
          "type": "address"
        },
        {
          "name": "",
          "type": "uint256"
        }
      ],
      "name": "publicKeyToIdentity",
      "outputs": [
        {
          "name": "",
          "type": "bytes32"
        }
      ],
      "payable": false,
      "stateMutability": "view",
      "type": "function"
    },
    {
      "constant": true,
      "inputs": [
        {
          "name": "",
          "type": "bytes32"
        },
        {
          "name": "",
          "type": "uint256"
        }
      ],
      "name": "identities",
      "outputs": [
        {
          "name": "accountAddress",
          "type": "address"
        },
        {
          "name": "valid",
          "type": "bool"
        }
      ],
      "payable": false,
      "stateMutability": "view",
      "type": "function"
    },
    {
      "constant": true,
      "inputs": [
        {
          "name": "",
          "type": "bytes32"
        }
      ],
      "name": "email",
      "outputs": [
        {
          "name": "",
          "type": "string"
        }
      ],
      "payable": false,
      "stateMutability": "view",
      "type": "function"
    },
    {
      "constant": true,
      "inputs": [
        {
          "name": "",
          "type": "bytes32"
        }
      ],
      "name": "PGPKey",
      "outputs": [
        {
          "name": "",
          "type": "string"
        }
      ],
      "payable": false,
      "stateMutability": "view",
      "type": "function"
    },
    {
      "constant": true,
      "inputs": [
        {
          "name": "",
          "type": "bytes32"
        },
        {
          "name": "",
          "type": "bytes32"
        },
        {
          "name": "",
          "type": "bytes16"
        }
      ],
      "name": "identityToken",
      "outputs": [
        {
          "name": "verifiedHASH",
          "type": "string"
        },
        {
          "name": "encryptedIPFSLink",
          "type": "string"
        },
        {
          "name": "validity",
          "type": "uint16"
        },
        {
          "name": "ownerAccepts",
          "type": "bool"
        }
      ],
      "payable": false,
      "stateMutability": "view",
      "type": "function"
    },
    {
      "constant": true,
      "inputs": [
        {
          "name": "",
          "type": "bytes32"
        }
      ],
      "name": "validIdentityKeys",
      "outputs": [
        {
          "name": "",
          "type": "bool"
        }
      ],
      "payable": false,
      "stateMutability": "view",
      "type": "function"
    },
    {
      "constant": true,
      "inputs": [
        {
          "name": "",
          "type": "bytes32"
        },
        {
          "name": "",
          "type": "bytes16"
        }
      ],
      "name": "tokenMetadata",
      "outputs": [
        {
          "name": "",
          "type": "string"
        }
      ],
      "payable": false,
      "stateMutability": "view",
      "type": "function"
    },
    {
      "constant": true,
      "inputs": [],
      "name": "admin",
      "outputs": [
        {
          "name": "",
          "type": "address"
        }
      ],
      "payable": false,
      "stateMutability": "view",
      "type": "function"
    },
    {
      "inputs": [],
      "payable": false,
      "stateMutability": "nonpayable",
      "type": "constructor"
    },
    {
      "constant": false,
      "inputs": [
        {
          "name": "x",
          "type": "uint256"
        }
      ],
      "name": "set",
      "outputs": [],
      "payable": false,
      "stateMutability": "nonpayable",
      "type": "function"
    },
    {
      "constant": true,
      "inputs": [],
      "name": "get",
      "outputs": [
        {
          "name": "",
          "type": "uint256"
        }
      ],
      "payable": false,
      "stateMutability": "view",
      "type": "function"
    },
    {
      "constant": false,
      "inputs": [
        {
          "name": "_identityKey",
          "type": "bytes32"
        }
      ],
      "name": "createIdentity",
      "outputs": [
        {
          "name": "",
          "type": "bool"
        }
      ],
      "payable": false,
      "stateMutability": "nonpayable",
      "type": "function"
    },
    {
      "constant": false,
      "inputs": [
        {
          "name": "_userID",
          "type": "bytes32"
        },
        {
          "name": "_position",
          "type": "uint16"
        },
        {
          "name": "newPublicKey",
          "type": "address"
        }
      ],
      "name": "addPublicKey",
      "outputs": [
        {
          "name": "",
          "type": "bool"
        }
      ],
      "payable": false,
      "stateMutability": "nonpayable",
      "type": "function"
    },
    {
      "constant": false,
      "inputs": [
        {
          "name": "_userID",
          "type": "bytes32"
        },
        {
          "name": "_position",
          "type": "uint16"
        },
        {
          "name": "_PGPKey",
          "type": "string"
        }
      ],
      "name": "addRawPGPKey",
      "outputs": [
        {
          "name": "",
          "type": "bool"
        }
      ],
      "payable": false,
      "stateMutability": "nonpayable",
      "type": "function"
    },
    {
      "constant": false,
      "inputs": [
        {
          "name": "_userID",
          "type": "bytes32"
        },
        {
          "name": "_position",
          "type": "uint16"
        },
        {
          "name": "_issueIDTo",
          "type": "bytes32"
        },
        {
          "name": "_verifiedHASH",
          "type": "string"
        },
        {
          "name": "_encryptedIPFSLink",
          "type": "string"
        },
        {
          "name": "_validity",
          "type": "uint16"
        },
        {
          "name": "tokenID",
          "type": "bytes16"
        }
      ],
      "name": "issueToken",
      "outputs": [
        {
          "name": "",
          "type": "bool"
        }
      ],
      "payable": false,
      "stateMutability": "nonpayable",
      "type": "function"
    },
    {
      "constant": false,
      "inputs": [
        {
          "name": "_userID",
          "type": "bytes32"
        },
        {
          "name": "_position",
          "type": "uint16"
        },
        {
          "name": "_issueIDTo",
          "type": "bytes32"
        },
        {
          "name": "_validity",
          "type": "uint16"
        },
        {
          "name": "tokenID",
          "type": "bytes16"
        }
      ],
      "name": "revokeIssuedToken",
      "outputs": [
        {
          "name": "",
          "type": "bool"
        }
      ],
      "payable": false,
      "stateMutability": "nonpayable",
      "type": "function"
    },
    {
      "constant": false,
      "inputs": [
        {
          "name": "_userID",
          "type": "bytes32"
        },
        {
          "name": "_position",
          "type": "uint16"
        },
        {
          "name": "_issuerID",
          "type": "bytes32"
        },
        {
          "name": "_certID",
          "type": "bytes16"
        }
      ],
      "name": "acceptToken",
      "outputs": [
        {
          "name": "",
          "type": "bool"
        }
      ],
      "payable": false,
      "stateMutability": "nonpayable",
      "type": "function"
    },
    {
      "constant": false,
      "inputs": [
        {
          "name": "_userID",
          "type": "bytes32"
        },
        {
          "name": "_position",
          "type": "uint16"
        },
        {
          "name": "_issuerID",
          "type": "bytes32"
        },
        {
          "name": "_certID",
          "type": "bytes16"
        }
      ],
      "name": "revokeToken",
      "outputs": [
        {
          "name": "",
          "type": "bool"
        }
      ],
      "payable": false,
      "stateMutability": "nonpayable",
      "type": "function"
    },
    {
      "constant": false,
      "inputs": [
        {
          "name": "_userID",
          "type": "bytes32"
        },
        {
          "name": "_position",
          "type": "uint16"
        },
        {
          "name": "_certID",
          "type": "bytes16"
        },
        {
          "name": "_metaData",
          "type": "string"
        }
      ],
      "name": "addTokenMetaData",
      "outputs": [
        {
          "name": "",
          "type": "bool"
        }
      ],
      "payable": false,
      "stateMutability": "nonpayable",
      "type": "function"
    },
    {
      "constant": false,
      "inputs": [
        {
          "name": "_userID",
          "type": "bytes32"
        },
        {
          "name": "_position",
          "type": "uint16"
        },
        {
          "name": "_email",
          "type": "string"
        }
      ],
      "name": "setEmail",
      "outputs": [
        {
          "name": "",
          "type": "bool"
        }
      ],
      "payable": false,
      "stateMutability": "nonpayable",
      "type": "function"
    }
  ],
  "bytecode": "0x608060405234801561001057600080fd5b5033600860006101000a81548173ffffffffffffffffffffffffffffffffffffffff021916908373ffffffffffffffffffffffffffffffffffffffff160217905550612002806100616000396000f300608060405260043610610107576000357c0100000000000000000000000000000000000000000000000000000000900463ffffffff16806316e579191461010c578063194dc95a146101c6578063216b00891461022f57806328601a07146102785780632fb30674146102ef578063373dea181461037557806360fe47b11461041f578063635c3dac1461044c5780636d4ce63c1461056857806371d49ebc14610593578063b88bc37e14610615578063c0b52dd1146106bf578063d32e03ce1461074f578063d4afc9c1146108aa578063d6723b0b146108f3578063d93b049914610975578063e452d80f14610a12578063e47ad3e314610aaf578063f851a44014610b76575b600080fd5b34801561011857600080fd5b506101ac6004803603810190808035600019169060200190929190803561ffff16906020019092919080356fffffffffffffffffffffffffffffffff19169060200190929190803590602001908201803590602001908080601f0160208091040260200160405190810160405280939291908181526020018383808284378201915050505050509192919290505050610bcd565b604051808215151515815260200191505060405180910390f35b3480156101d257600080fd5b50610211600480360381019080803573ffffffffffffffffffffffffffffffffffffffff16906020019092919080359060200190929190505050610d2f565b60405180826000191660001916815260200191505060405180910390f35b34801561023b57600080fd5b5061025e6004803603810190808035600019169060200190929190505050610d5f565b604051808215151515815260200191505060405180910390f35b34801561028457600080fd5b506102d56004803603810190808035600019169060200190929190803561ffff169060200190929190803573ffffffffffffffffffffffffffffffffffffffff169060200190929190505050610f25565b604051808215151515815260200191505060405180910390f35b3480156102fb57600080fd5b50610328600480360381019080803560001916906020019092919080359060200190929190505050611168565b604051808373ffffffffffffffffffffffffffffffffffffffff1673ffffffffffffffffffffffffffffffffffffffff168152602001821515151581526020019250505060405180910390f35b34801561038157600080fd5b506103a460048036038101908080356000191690602001909291905050506111d1565b6040518080602001828103825283818151815260200191508051906020019080838360005b838110156103e45780820151818401526020810190506103c9565b50505050905090810190601f1680156104115780820380516001836020036101000a031916815260200191505b509250505060405180910390f35b34801561042b57600080fd5b5061044a60048036038101908080359060200190929190505050611281565b005b34801561045857600080fd5b5061054e6004803603810190808035600019169060200190929190803561ffff1690602001909291908035600019169060200190929190803590602001908201803590602001908080601f0160208091040260200160405190810160405280939291908181526020018383808284378201915050505050509192919290803590602001908201803590602001908080601f0160208091040260200160405190810160405280939291908181526020018383808284378201915050505050509192919290803561ffff16906020019092919080356fffffffffffffffffffffffffffffffff1916906020019092919050505061128b565b604051808215151515815260200191505060405180910390f35b34801561057457600080fd5b5061057d611490565b6040518082815260200191505060405180910390f35b34801561059f57600080fd5b506105fb6004803603810190808035600019169060200190929190803561ffff169060200190929190803560001916906020019092919080356fffffffffffffffffffffffffffffffff19169060200190929190505050611499565b604051808215151515815260200191505060405180910390f35b34801561062157600080fd5b50610644600480360381019080803560001916906020019092919050505061161b565b6040518080602001828103825283818151815260200191508051906020019080838360005b83811015610684578082015181840152602081019050610669565b50505050905090810190601f1680156106b15780820380516001836020036101000a031916815260200191505b509250505060405180910390f35b3480156106cb57600080fd5b506107356004803603810190808035600019169060200190929190803561ffff1690602001909291908035600019169060200190929190803561ffff16906020019092919080356fffffffffffffffffffffffffffffffff191690602001909291905050506116cb565b604051808215151515815260200191505060405180910390f35b34801561075b57600080fd5b506107a96004803603810190808035600019169060200190929190803560001916906020019092919080356fffffffffffffffffffffffffffffffff19169060200190929190505050611843565b6040518080602001806020018561ffff1661ffff16815260200184151515158152602001838103835287818151815260200191508051906020019080838360005b838110156108055780820151818401526020810190506107ea565b50505050905090810190601f1680156108325780820380516001836020036101000a031916815260200191505b50838103825286818151815260200191508051906020019080838360005b8381101561086b578082015181840152602081019050610850565b50505050905090810190601f1680156108985780820380516001836020036101000a031916815260200191505b50965050505050505060405180910390f35b3480156108b657600080fd5b506108d960048036038101908080356000191690602001909291905050506119d8565b604051808215151515815260200191505060405180910390f35b3480156108ff57600080fd5b5061095b6004803603810190808035600019169060200190929190803561ffff169060200190929190803560001916906020019092919080356fffffffffffffffffffffffffffffffff191690602001909291905050506119f8565b604051808215151515815260200191505060405180910390f35b34801561098157600080fd5b506109f86004803603810190808035600019169060200190929190803561ffff169060200190929190803590602001908201803590602001908080601f0160208091040260200160405190810160405280939291908181526020018383808284378201915050505050509192919290505050611b7a565b604051808215151515815260200191505060405180910390f35b348015610a1e57600080fd5b50610a956004803603810190808035600019169060200190929190803561ffff169060200190929190803590602001908201803590602001908080601f0160208091040260200160405190810160405280939291908181526020018383808284378201915050505050509192919290505050611ca4565b604051808215151515815260200191505060405180910390f35b348015610abb57600080fd5b50610afb600480360381019080803560001916906020019092919080356fffffffffffffffffffffffffffffffff19169060200190929190505050611dce565b6040518080602001828103825283818151815260200191508051906020019080838360005b83811015610b3b578082015181840152602081019050610b20565b50505050905090810190601f168015610b685780820380516001836020036101000a031916815260200191505b509250505060405180910390f35b348015610b8257600080fd5b50610b8b611e8b565b604051808273ffffffffffffffffffffffffffffffffffffffff1673ffffffffffffffffffffffffffffffffffffffff16815260200191505060405180910390f35b60003373ffffffffffffffffffffffffffffffffffffffff166005600087600019166000191681526020019081526020016000208561ffff16815481101515610c1257fe5b9060005260206000200160000160009054906101000a900473ffffffffffffffffffffffffffffffffffffffff1673ffffffffffffffffffffffffffffffffffffffff16148015610cad5750600115156005600087600019166000191681526020019081526020016000208561ffff16815481101515610c8e57fe5b9060005260206000200160000160149054906101000a900460ff161515145b15610d2257816007600087600019166000191681526020019081526020016000206000856fffffffffffffffffffffffffffffffff19166fffffffffffffffffffffffffffffffff191681526020019081526020016000209080519060200190610d18929190611eb1565b5060019050610d27565b600090505b949350505050565b600160205281600052604060002081815481101515610d4a57fe5b90600052602060002001600091509150505481565b600080151560046000846000191660001916815260200190815260200160002060009054906101000a900460ff1615151415610f1b57600160046000846000191660001916815260200190815260200160002060006101000a81548160ff02191690831515021790555060056000836000191660001916815260200190815260200160002060408051908101604052803373ffffffffffffffffffffffffffffffffffffffff1681526020016001151581525090806001815401808255809150509060018203906000526020600020016000909192909190915060008201518160000160006101000a81548173ffffffffffffffffffffffffffffffffffffffff021916908373ffffffffffffffffffffffffffffffffffffffff16021790555060208201518160000160146101000a81548160ff021916908315150217905550505050600160003373ffffffffffffffffffffffffffffffffffffffff1673ffffffffffffffffffffffffffffffffffffffff16815260200190815260200160002082908060018154018082558091505090600182039060005260206000200160009091929091909150906000191690555060019050610f20565b600090505b919050565b60003373ffffffffffffffffffffffffffffffffffffffff166005600086600019166000191681526020019081526020016000208461ffff16815481101515610f6a57fe5b9060005260206000200160000160009054906101000a900473ffffffffffffffffffffffffffffffffffffffff1673ffffffffffffffffffffffffffffffffffffffff161480156110055750600115156005600086600019166000191681526020019081526020016000208461ffff16815481101515610fe657fe5b9060005260206000200160000160149054906101000a900460ff161515145b1561115c5760056000856000191660001916815260200190815260200160002060408051908101604052808473ffffffffffffffffffffffffffffffffffffffff1681526020016001151581525090806001815401808255809150509060018203906000526020600020016000909192909190915060008201518160000160006101000a81548173ffffffffffffffffffffffffffffffffffffffff021916908373ffffffffffffffffffffffffffffffffffffffff16021790555060208201518160000160146101000a81548160ff021916908315150217905550505050600160003373ffffffffffffffffffffffffffffffffffffffff1673ffffffffffffffffffffffffffffffffffffffff16815260200190815260200160002084908060018154018082558091505090600182039060005260206000200160009091929091909150906000191690555060019050611161565b600090505b9392505050565b60056020528160005260406000208181548110151561118357fe5b90600052602060002001600091509150508060000160009054906101000a900473ffffffffffffffffffffffffffffffffffffffff16908060000160149054906101000a900460ff16905082565b60026020528060005260406000206000915090508054600181600116156101000203166002900480601f0160208091040260200160405190810160405280929190818152602001828054600181600116156101000203166002900480156112795780601f1061124e57610100808354040283529160200191611279565b820191906000526020600020905b81548152906001019060200180831161125c57829003601f168201915b505050505081565b8060008190555050565b60003373ffffffffffffffffffffffffffffffffffffffff16600560008a600019166000191681526020019081526020016000208861ffff168154811015156112d057fe5b9060005260206000200160000160009054906101000a900473ffffffffffffffffffffffffffffffffffffffff1673ffffffffffffffffffffffffffffffffffffffff1614801561136b575060011515600560008a600019166000191681526020019081526020016000208861ffff1681548110151561134c57fe5b9060005260206000200160000160149054906101000a900460ff161515145b15611485576080604051908101604052808681526020018581526020018461ffff1681526020016000151581525060066000886000191660001916815260200190815260200160002060008a600019166000191681526020019081526020016000206000846fffffffffffffffffffffffffffffffff19166fffffffffffffffffffffffffffffffff191681526020019081526020016000206000820151816000019080519060200190611420929190611f31565b50602082015181600101908051906020019061143d929190611f31565b5060408201518160020160006101000a81548161ffff021916908361ffff16021790555060608201518160020160026101000a81548160ff0219169083151502179055509050505b979650505050505050565b60008054905090565b60003373ffffffffffffffffffffffffffffffffffffffff166005600087600019166000191681526020019081526020016000208561ffff168154811015156114de57fe5b9060005260206000200160000160009054906101000a900473ffffffffffffffffffffffffffffffffffffffff1673ffffffffffffffffffffffffffffffffffffffff161480156115795750600115156005600087600019166000191681526020019081526020016000208561ffff1681548110151561155a57fe5b9060005260206000200160000160149054906101000a900460ff161515145b1561160e576001600660008760001916600019168152602001908152602001600020600085600019166000191681526020019081526020016000206000846fffffffffffffffffffffffffffffffff19166fffffffffffffffffffffffffffffffff1916815260200190815260200160002060020160026101000a81548160ff02191690831515021790555060019050611613565b600090505b949350505050565b60036020528060005260406000206000915090508054600181600116156101000203166002900480601f0160208091040260200160405190810160405280929190818152602001828054600181600116156101000203166002900480156116c35780601f10611698576101008083540402835291602001916116c3565b820191906000526020600020905b8154815290600101906020018083116116a657829003601f168201915b505050505081565b60003373ffffffffffffffffffffffffffffffffffffffff166005600088600019166000191681526020019081526020016000208661ffff1681548110151561171057fe5b9060005260206000200160000160009054906101000a900473ffffffffffffffffffffffffffffffffffffffff1673ffffffffffffffffffffffffffffffffffffffff161480156117ab5750600115156005600088600019166000191681526020019081526020016000208661ffff1681548110151561178c57fe5b9060005260206000200160000160149054906101000a900460ff161515145b1561183a5782600660008660001916600019168152602001908152602001600020600088600019166000191681526020019081526020016000206000846fffffffffffffffffffffffffffffffff19166fffffffffffffffffffffffffffffffff1916815260200190815260200160002060020160006101000a81548161ffff021916908361ffff1602179055505b95945050505050565b60066020528260005260406000206020528160005260406000206020528060005260406000206000925092505050806000018054600181600116156101000203166002900480601f0160208091040260200160405190810160405280929190818152602001828054600181600116156101000203166002900480156119095780601f106118de57610100808354040283529160200191611909565b820191906000526020600020905b8154815290600101906020018083116118ec57829003601f168201915b505050505090806001018054600181600116156101000203166002900480601f0160208091040260200160405190810160405280929190818152602001828054600181600116156101000203166002900480156119a75780601f1061197c576101008083540402835291602001916119a7565b820191906000526020600020905b81548152906001019060200180831161198a57829003601f168201915b5050505050908060020160009054906101000a900461ffff16908060020160029054906101000a900460ff16905084565b60046020528060005260406000206000915054906101000a900460ff1681565b60003373ffffffffffffffffffffffffffffffffffffffff166005600087600019166000191681526020019081526020016000208561ffff16815481101515611a3d57fe5b9060005260206000200160000160009054906101000a900473ffffffffffffffffffffffffffffffffffffffff1673ffffffffffffffffffffffffffffffffffffffff16148015611ad85750600115156005600087600019166000191681526020019081526020016000208561ffff16815481101515611ab957fe5b9060005260206000200160000160149054906101000a900460ff161515145b15611b6d576000600660008760001916600019168152602001908152602001600020600085600019166000191681526020019081526020016000206000846fffffffffffffffffffffffffffffffff19166fffffffffffffffffffffffffffffffff1916815260200190815260200160002060020160026101000a81548160ff02191690831515021790555060019050611b72565b600090505b949350505050565b60003373ffffffffffffffffffffffffffffffffffffffff166005600086600019166000191681526020019081526020016000208461ffff16815481101515611bbf57fe5b9060005260206000200160000160009054906101000a900473ffffffffffffffffffffffffffffffffffffffff1673ffffffffffffffffffffffffffffffffffffffff16148015611c5a5750600115156005600086600019166000191681526020019081526020016000208461ffff16815481101515611c3b57fe5b9060005260206000200160000160149054906101000a900460ff161515145b15611c9857816002600086600019166000191681526020019081526020016000209080519060200190611c8e929190611eb1565b5060019050611c9d565b600090505b9392505050565b60003373ffffffffffffffffffffffffffffffffffffffff166005600086600019166000191681526020019081526020016000208461ffff16815481101515611ce957fe5b9060005260206000200160000160009054906101000a900473ffffffffffffffffffffffffffffffffffffffff1673ffffffffffffffffffffffffffffffffffffffff16148015611d845750600115156005600086600019166000191681526020019081526020016000208461ffff16815481101515611d6557fe5b9060005260206000200160000160149054906101000a900460ff161515145b15611dc257816003600086600019166000191681526020019081526020016000209080519060200190611db8929190611eb1565b5060019050611dc7565b600090505b9392505050565b6007602052816000526040600020602052806000526040600020600091509150508054600181600116156101000203166002900480601f016020809104026020016040519081016040528092919081815260200182805460018160011615610100020316600290048015611e835780601f10611e5857610100808354040283529160200191611e83565b820191906000526020600020905b815481529060010190602001808311611e6657829003601f168201915b505050505081565b600860009054906101000a900473ffffffffffffffffffffffffffffffffffffffff1681565b828054600181600116156101000203166002900490600052602060002090601f016020900481019282601f10611ef257805160ff1916838001178555611f20565b82800160010185558215611f20579182015b82811115611f1f578251825591602001919060010190611f04565b5b509050611f2d9190611fb1565b5090565b828054600181600116156101000203166002900490600052602060002090601f016020900481019282601f10611f7257805160ff1916838001178555611fa0565b82800160010185558215611fa0579182015b82811115611f9f578251825591602001919060010190611f84565b5b509050611fad9190611fb1565b5090565b611fd391905b80821115611fcf576000816000905550600101611fb7565b5090565b905600a165627a7a72305820b8378cbc9f08a02264d38f9f7546b4fe6b18d2567f06566837a1c4b6b382815b0029",
  "source": "pragma solidity ^0.4.23;\r\n\r\ncontract Identity {\r\n\r\n    uint storedData;\r\n    //Structs\r\n    struct identityTokenStruct {\r\n        string verifiedHASH;\r\n        string encryptedIPFSLink;\r\n        uint16 validity;\r\n        bool ownerAccepts;\r\n    }\r\n    struct identityAddress {\r\n        address accountAddress;\r\n        bool valid;\r\n    }\r\n\r\n\r\n    //Mappings\r\n    mapping (address => bytes32[]) public publicKeyToIdentity;\r\n    mapping (bytes32 => string) public email;\r\n    mapping (bytes32 => string) public PGPKey;\r\n    mapping (bytes32 => bool) public validIdentityKeys;\r\n    mapping (bytes32 => identityAddress[]) public identities;\r\n\r\n    //User, Issuer, Certification ID\r\n    mapping (bytes32 => mapping(bytes32 => mapping(bytes16 => identityTokenStruct))) public identityToken;\r\n\r\n\r\n    //This stuct maps to metadata or IPFS hash that explains what the token is about for people who do not know what the token is\r\n    mapping (bytes32 => mapping(bytes16 => string)) public tokenMetadata;\r\n\r\n\r\n    address public admin;\r\n    constructor() public {\r\n        admin = msg.sender;\r\n    }\r\n    \r\n    function set(uint x) public {\r\n        storedData = x;\r\n    }\r\n\r\n    function get() public view returns (uint) {\r\n        return storedData;\r\n    }\r\n    function createIdentity (bytes32 _identityKey) \r\n        public returns (bool) {\r\n        if(validIdentityKeys[_identityKey] == false){\r\n            validIdentityKeys[_identityKey] = true;\r\n            identities[_identityKey].push(identityAddress(msg.sender, true));\r\n            publicKeyToIdentity[msg.sender].push(_identityKey);\r\n            return(true);\r\n        }\r\n        else{\r\n            return(false);\r\n        }\r\n    }\r\n    function addPublicKey (bytes32 _userID, uint16 _position, address newPublicKey) \r\n        public returns(bool) {\r\n        if(identities[_userID][_position].accountAddress == msg.sender && identities[_userID][_position].valid == true){\r\n            identities[_userID].push(identityAddress(newPublicKey, true));\r\n            publicKeyToIdentity[msg.sender].push(_userID);\r\n            return(true);\r\n        }\r\n        else {\r\n            return(false);\r\n        }\r\n    }\r\n    function addRawPGPKey (bytes32 _userID, uint16 _position, string _PGPKey) \r\n        public returns (bool) {\r\n        if(identities[_userID][_position].accountAddress == msg.sender && identities[_userID][_position].valid == true){\r\n            PGPKey[_userID] = _PGPKey;\r\n            return (true);\r\n        }\r\n        else {\r\n            return(false);\r\n        }\r\n    }\r\n\r\n\r\n    function issueToken (bytes32 _userID, uint16 _position, bytes32 _issueIDTo, string _verifiedHASH, string _encryptedIPFSLink, uint16 _validity, bytes16 tokenID) \r\n        public returns (bool) {\r\n        if(identities[_userID][_position].accountAddress == msg.sender && identities[_userID][_position].valid == true){\r\n            identityToken[_issueIDTo][_userID][tokenID] = identityTokenStruct(_verifiedHASH, _encryptedIPFSLink, _validity, false);\r\n        }\r\n    }\r\n\r\n\r\n    function revokeIssuedToken (bytes32 _userID, uint16 _position, bytes32 _issueIDTo, uint16 _validity, bytes16 tokenID) \r\n        public returns (bool) {\r\n        if(identities[_userID][_position].accountAddress == msg.sender && identities[_userID][_position].valid == true){\r\n            identityToken[_issueIDTo][_userID][tokenID].validity = _validity;\r\n        }\r\n    }\r\n\r\n\r\n    function acceptToken (bytes32 _userID, uint16 _position, bytes32 _issuerID, bytes16 _certID) \r\n        public returns (bool) {\r\n        if(identities[_userID][_position].accountAddress == msg.sender && identities[_userID][_position].valid == true){\r\n            identityToken[_userID][_issuerID][_certID].ownerAccepts = true;\r\n            return true;\r\n        }\r\n        return false;\r\n    }\r\n\r\n\r\n    function revokeToken (bytes32 _userID, uint16 _position, bytes32 _issuerID, bytes16 _certID) \r\n        public returns (bool) {\r\n        if(identities[_userID][_position].accountAddress == msg.sender && identities[_userID][_position].valid == true){\r\n            identityToken[_userID][_issuerID][_certID].ownerAccepts = false;\r\n            return true;\r\n        }\r\n        return false;\r\n    }\r\n\r\n\r\n    function addTokenMetaData (bytes32 _userID, uint16 _position, bytes16 _certID, string _metaData) \r\n        public returns (bool) {\r\n        if(identities[_userID][_position].accountAddress == msg.sender && identities[_userID][_position].valid == true){\r\n            tokenMetadata[_userID][_certID] = _metaData;\r\n            return true;\r\n        }\r\n        return false;\r\n    }\r\n\r\n\r\n    function setEmail (bytes32 _userID, uint16 _position, string _email) \r\n        public returns (bool) {\r\n        if(identities[_userID][_position].accountAddress == msg.sender && identities[_userID][_position].valid == true){\r\n            email[_userID] = _email;\r\n            return true;\r\n        }\r\n        return false;\r\n    }\r\n}",
  "sourcePath": "D:\\AngelHack\\contracts\\Identity.sol",
  "compiler": {
    "name": "solc",
    "version": "0.4.24+commit.e67f0147.Emscripten.clang"
  },
  "schemaVersion": "2.0.0",
  "updatedAt": "2018-06-24T00:43:48.729Z"
}