{
  "contractName": "Identity",
  "abi": [
    {
      "constant": true,
      "inputs": [
        {
          "name": "",
          "type": "address"
        },
        {
          "name": "",
          "type": "uint256"
        }
      ],
      "name": "publicKeyToIdentity",
      "outputs": [
        {
          "name": "",
          "type": "bytes32"
        }
      ],
      "payable": false,
      "stateMutability": "view",
      "type": "function"
    },
    {
      "constant": true,
      "inputs": [
        {
          "name": "",
          "type": "bytes32"
        },
        {
          "name": "",
          "type": "uint256"
        }
      ],
      "name": "identities",
      "outputs": [
        {
          "name": "accountAddress",
          "type": "address"
        },
        {
          "name": "valid",
          "type": "bool"
        }
      ],
      "payable": false,
      "stateMutability": "view",
      "type": "function"
    },
    {
      "constant": true,
      "inputs": [
        {
          "name": "",
          "type": "bytes32"
        }
      ],
      "name": "email",
      "outputs": [
        {
          "name": "",
          "type": "string"
        }
      ],
      "payable": false,
      "stateMutability": "view",
      "type": "function"
    },
    {
      "constant": true,
      "inputs": [
        {
          "name": "",
          "type": "bytes32"
        }
      ],
      "name": "PGPKey",
      "outputs": [
        {
          "name": "",
          "type": "string"
        }
      ],
      "payable": false,
      "stateMutability": "view",
      "type": "function"
    },
    {
      "constant": true,
      "inputs": [
        {
          "name": "",
          "type": "bytes32"
        },
        {
          "name": "",
          "type": "bytes32"
        },
        {
          "name": "",
          "type": "bytes16"
        }
      ],
      "name": "identityToken",
      "outputs": [
        {
          "name": "verifiedHASH",
          "type": "string"
        },
        {
          "name": "encryptedIPFSLink",
          "type": "string"
        },
        {
          "name": "validity",
          "type": "uint16"
        },
        {
          "name": "ownerAccepts",
          "type": "bool"
        }
      ],
      "payable": false,
      "stateMutability": "view",
      "type": "function"
    },
    {
      "constant": true,
      "inputs": [
        {
          "name": "",
          "type": "bytes32"
        }
      ],
      "name": "validIdentityKeys",
      "outputs": [
        {
          "name": "",
          "type": "bool"
        }
      ],
      "payable": false,
      "stateMutability": "view",
      "type": "function"
    },
    {
      "constant": true,
      "inputs": [
        {
          "name": "",
          "type": "bytes32"
        },
        {
          "name": "",
          "type": "bytes16"
        }
      ],
      "name": "tokenMetadata",
      "outputs": [
        {
          "name": "",
          "type": "string"
        }
      ],
      "payable": false,
      "stateMutability": "view",
      "type": "function"
    },
    {
      "constant": true,
      "inputs": [],
      "name": "admin",
      "outputs": [
        {
          "name": "",
          "type": "address"
        }
      ],
      "payable": false,
      "stateMutability": "view",
      "type": "function"
    },
    {
      "inputs": [],
      "payable": false,
      "stateMutability": "nonpayable",
      "type": "constructor"
    },
    {
      "constant": false,
      "inputs": [
        {
          "name": "x",
          "type": "uint256"
        }
      ],
      "name": "set",
      "outputs": [],
      "payable": false,
      "stateMutability": "nonpayable",
      "type": "function"
    },
    {
      "constant": true,
      "inputs": [],
      "name": "get",
      "outputs": [
        {
          "name": "",
          "type": "uint256"
        }
      ],
      "payable": false,
      "stateMutability": "view",
      "type": "function"
    },
    {
      "constant": false,
      "inputs": [
        {
          "name": "_identityKey",
          "type": "bytes32"
        }
      ],
      "name": "createIdentity",
      "outputs": [
        {
          "name": "",
          "type": "bool"
        }
      ],
      "payable": false,
      "stateMutability": "nonpayable",
      "type": "function"
    },
    {
      "constant": false,
      "inputs": [
        {
          "name": "_userID",
          "type": "bytes32"
        },
        {
          "name": "_position",
          "type": "uint16"
        },
        {
          "name": "newPublicKey",
          "type": "address"
        }
      ],
      "name": "addPublicKey",
      "outputs": [
        {
          "name": "",
          "type": "bool"
        }
      ],
      "payable": false,
      "stateMutability": "nonpayable",
      "type": "function"
    },
    {
      "constant": false,
      "inputs": [
        {
          "name": "_userID",
          "type": "bytes32"
        },
        {
          "name": "_position",
          "type": "uint16"
        },
        {
          "name": "_PGPKey",
          "type": "string"
        }
      ],
      "name": "addRawPGPKey",
      "outputs": [
        {
          "name": "",
          "type": "bool"
        }
      ],
      "payable": false,
      "stateMutability": "nonpayable",
      "type": "function"
    },
    {
      "constant": false,
      "inputs": [
        {
          "name": "_userID",
          "type": "bytes32"
        },
        {
          "name": "_position",
          "type": "uint16"
        },
        {
          "name": "_issueIDTo",
          "type": "bytes32"
        },
        {
          "name": "_verifiedHASH",
          "type": "string"
        },
        {
          "name": "_encryptedIPFSLink",
          "type": "string"
        },
        {
          "name": "_validity",
          "type": "uint16"
        },
        {
          "name": "tokenID",
          "type": "bytes16"
        }
      ],
      "name": "issueToken",
      "outputs": [
        {
          "name": "",
          "type": "bool"
        }
      ],
      "payable": false,
      "stateMutability": "nonpayable",
      "type": "function"
    },
    {
      "constant": false,
      "inputs": [
        {
          "name": "_userID",
          "type": "bytes32"
        },
        {
          "name": "_position",
          "type": "uint16"
        },
        {
          "name": "_issueIDTo",
          "type": "bytes32"
        },
        {
          "name": "_validity",
          "type": "uint16"
        },
        {
          "name": "tokenID",
          "type": "bytes16"
        }
      ],
      "name": "revokeIssuedToken",
      "outputs": [
        {
          "name": "",
          "type": "bool"
        }
      ],
      "payable": false,
      "stateMutability": "nonpayable",
      "type": "function"
    },
    {
      "constant": false,
      "inputs": [
        {
          "name": "_userID",
          "type": "bytes32"
        },
        {
          "name": "_position",
          "type": "uint16"
        },
        {
          "name": "_issuerID",
          "type": "bytes32"
        },
        {
          "name": "_certID",
          "type": "bytes16"
        }
      ],
      "name": "acceptToken",
      "outputs": [
        {
          "name": "",
          "type": "bool"
        }
      ],
      "payable": false,
      "stateMutability": "nonpayable",
      "type": "function"
    },
    {
      "constant": false,
      "inputs": [
        {
          "name": "_userID",
          "type": "bytes32"
        },
        {
          "name": "_position",
          "type": "uint16"
        },
        {
          "name": "_issuerID",
          "type": "bytes32"
        },
        {
          "name": "_certID",
          "type": "bytes16"
        }
      ],
      "name": "revokeToken",
      "outputs": [
        {
          "name": "",
          "type": "bool"
        }
      ],
      "payable": false,
      "stateMutability": "nonpayable",
      "type": "function"
    },
    {
      "constant": false,
      "inputs": [
        {
          "name": "_userID",
          "type": "bytes32"
        },
        {
          "name": "_position",
          "type": "uint16"
        },
        {
          "name": "_certID",
          "type": "bytes16"
        },
        {
          "name": "_metaData",
          "type": "string"
        }
      ],
      "name": "addTokenMetaData",
      "outputs": [
        {
          "name": "",
          "type": "bool"
        }
      ],
      "payable": false,
      "stateMutability": "nonpayable",
      "type": "function"
    },
    {
      "constant": false,
      "inputs": [
        {
          "name": "_userID",
          "type": "bytes32"
        },
        {
          "name": "_position",
          "type": "uint16"
        },
        {
          "name": "_email",
          "type": "string"
        }
      ],
      "name": "setEmail",
      "outputs": [
        {
          "name": "",
          "type": "bool"
        }
      ],
      "payable": false,
      "stateMutability": "nonpayable",
      "type": "function"
    }
  ],
  "bytecode": "0x6060604052341561000f57600080fd5b33600860006101000a81548173ffffffffffffffffffffffffffffffffffffffff021916908373ffffffffffffffffffffffffffffffffffffffff1602179055506120098061005f6000396000f300606060405260043610610107576000357c0100000000000000000000000000000000000000000000000000000000900463ffffffff16806316e579191461010c578063194dc95a146101b7578063216b00891461021557806328601a07146102545780632fb30674146102bf578063373dea181461033a57806360fe47b1146103da578063635c3dac146103fd5780636d4ce63c1461050557806371d49ebc1461052e578063b88bc37e146105a3578063c0b52dd114610643578063d32e03ce146106c5578063d4afc9c114610814578063d6723b0b14610853578063d93b0499146108c8578063e452d80f14610957578063e47ad3e3146109e6578063f851a44014610aa2575b600080fd5b341561011757600080fd5b61019d60048080356000191690602001909190803561ffff169060200190919080356fffffffffffffffffffffffffffffffff191690602001909190803590602001908201803590602001908080601f01602080910402602001604051908101604052809392919081815260200183838082843782019150505050505091905050610af7565b604051808215151515815260200191505060405180910390f35b34156101c257600080fd5b6101f7600480803573ffffffffffffffffffffffffffffffffffffffff16906020019091908035906020019091905050610c5b565b60405180826000191660001916815260200191505060405180910390f35b341561022057600080fd5b61023a600480803560001916906020019091905050610c8c565b604051808215151515815260200191505060405180910390f35b341561025f57600080fd5b6102a560048080356000191690602001909190803561ffff1690602001909190803573ffffffffffffffffffffffffffffffffffffffff16906020019091905050610e4c565b604051808215151515815260200191505060405180910390f35b34156102ca57600080fd5b6102ed60048080356000191690602001909190803590602001909190505061108b565b604051808373ffffffffffffffffffffffffffffffffffffffff1673ffffffffffffffffffffffffffffffffffffffff168152602001821515151581526020019250505060405180910390f35b341561034557600080fd5b61035f6004808035600019169060200190919050506110f5565b6040518080602001828103825283818151815260200191508051906020019080838360005b8381101561039f578082015181840152602081019050610384565b50505050905090810190601f1680156103cc5780820380516001836020036101000a031916815260200191505b509250505060405180910390f35b34156103e557600080fd5b6103fb60048080359060200190919050506111a5565b005b341561040857600080fd5b6104eb60048080356000191690602001909190803561ffff169060200190919080356000191690602001909190803590602001908201803590602001908080601f0160208091040260200160405190810160405280939291908181526020018383808284378201915050505050509190803590602001908201803590602001908080601f0160208091040260200160405190810160405280939291908181526020018383808284378201915050505050509190803561ffff169060200190919080356fffffffffffffffffffffffffffffffff19169060200190919050506111af565b604051808215151515815260200191505060405180910390f35b341561051057600080fd5b6105186113b6565b6040518082815260200191505060405180910390f35b341561053957600080fd5b61058960048080356000191690602001909190803561ffff16906020019091908035600019169060200190919080356fffffffffffffffffffffffffffffffff19169060200190919050506113bf565b604051808215151515815260200191505060405180910390f35b34156105ae57600080fd5b6105c8600480803560001916906020019091905050611543565b6040518080602001828103825283818151815260200191508051906020019080838360005b838110156106085780820151818401526020810190506105ed565b50505050905090810190601f1680156106355780820380516001836020036101000a031916815260200191505b509250505060405180910390f35b341561064e57600080fd5b6106ab60048080356000191690602001909190803561ffff169060200190919080356000191690602001909190803561ffff169060200190919080356fffffffffffffffffffffffffffffffff19169060200190919050506115f3565b604051808215151515815260200191505060405180910390f35b34156106d057600080fd5b610713600480803560001916906020019091908035600019169060200190919080356fffffffffffffffffffffffffffffffff191690602001909190505061176d565b6040518080602001806020018561ffff1661ffff16815260200184151515158152602001838103835287818151815260200191508051906020019080838360005b8381101561076f578082015181840152602081019050610754565b50505050905090810190601f16801561079c5780820380516001836020036101000a031916815260200191505b50838103825286818151815260200191508051906020019080838360005b838110156107d55780820151818401526020810190506107ba565b50505050905090810190601f1680156108025780820380516001836020036101000a031916815260200191505b50965050505050505060405180910390f35b341561081f57600080fd5b610839600480803560001916906020019091905050611902565b604051808215151515815260200191505060405180910390f35b341561085e57600080fd5b6108ae60048080356000191690602001909190803561ffff16906020019091908035600019169060200190919080356fffffffffffffffffffffffffffffffff1916906020019091905050611922565b604051808215151515815260200191505060405180910390f35b34156108d357600080fd5b61093d60048080356000191690602001909190803561ffff1690602001909190803590602001908201803590602001908080601f01602080910402602001604051908101604052809392919081815260200183838082843782019150505050505091905050611aa6565b604051808215151515815260200191505060405180910390f35b341561096257600080fd5b6109cc60048080356000191690602001909190803561ffff1690602001909190803590602001908201803590602001908080601f01602080910402602001604051908101604052809392919081815260200183838082843782019150505050505091905050611bd2565b604051808215151515815260200191505060405180910390f35b34156109f157600080fd5b610a276004808035600019169060200190919080356fffffffffffffffffffffffffffffffff1916906020019091905050611cfe565b6040518080602001828103825283818151815260200191508051906020019080838360005b83811015610a67578082015181840152602081019050610a4c565b50505050905090810190601f168015610a945780820380516001836020036101000a031916815260200191505b509250505060405180910390f35b3415610aad57600080fd5b610ab5611dbb565b604051808273ffffffffffffffffffffffffffffffffffffffff1673ffffffffffffffffffffffffffffffffffffffff16815260200191505060405180910390f35b60003373ffffffffffffffffffffffffffffffffffffffff166005600087600019166000191681526020019081526020016000208561ffff16815481101515610b3c57fe5b906000526020600020900160000160009054906101000a900473ffffffffffffffffffffffffffffffffffffffff1673ffffffffffffffffffffffffffffffffffffffff16148015610bd95750600115156005600087600019166000191681526020019081526020016000208561ffff16815481101515610bb957fe5b906000526020600020900160000160149054906101000a900460ff161515145b15610c4e57816007600087600019166000191681526020019081526020016000206000856fffffffffffffffffffffffffffffffff19166fffffffffffffffffffffffffffffffff191681526020019081526020016000209080519060200190610c44929190611de1565b5060019050610c53565b600090505b949350505050565b600160205281600052604060002081815481101515610c7657fe5b9060005260206000209001600091509150505481565b600080151560046000846000191660001916815260200190815260200160002060009054906101000a900460ff1615151415610e4257600160046000846000191660001916815260200190815260200160002060006101000a81548160ff0219169083151502179055506005600083600019166000191681526020019081526020016000208054806001018281610d239190611e61565b9160005260206000209001600060408051908101604052803373ffffffffffffffffffffffffffffffffffffffff16815260200160011515815250909190915060008201518160000160006101000a81548173ffffffffffffffffffffffffffffffffffffffff021916908373ffffffffffffffffffffffffffffffffffffffff16021790555060208201518160000160146101000a81548160ff021916908315150217905550505050600160003373ffffffffffffffffffffffffffffffffffffffff1673ffffffffffffffffffffffffffffffffffffffff1681526020019081526020016000208054806001018281610e1e9190611e8d565b91600052602060002090016000849091909150906000191690555060019050610e47565b600090505b919050565b60003373ffffffffffffffffffffffffffffffffffffffff166005600086600019166000191681526020019081526020016000208461ffff16815481101515610e9157fe5b906000526020600020900160000160009054906101000a900473ffffffffffffffffffffffffffffffffffffffff1673ffffffffffffffffffffffffffffffffffffffff16148015610f2e5750600115156005600086600019166000191681526020019081526020016000208461ffff16815481101515610f0e57fe5b906000526020600020900160000160149054906101000a900460ff161515145b1561107f576005600085600019166000191681526020019081526020016000208054806001018281610f609190611e61565b9160005260206000209001600060408051908101604052808673ffffffffffffffffffffffffffffffffffffffff16815260200160011515815250909190915060008201518160000160006101000a81548173ffffffffffffffffffffffffffffffffffffffff021916908373ffffffffffffffffffffffffffffffffffffffff16021790555060208201518160000160146101000a81548160ff021916908315150217905550505050600160003373ffffffffffffffffffffffffffffffffffffffff1673ffffffffffffffffffffffffffffffffffffffff168152602001908152602001600020805480600101828161105b9190611e8d565b91600052602060002090016000869091909150906000191690555060019050611084565b600090505b9392505050565b6005602052816000526040600020818154811015156110a657fe5b9060005260206000209001600091509150508060000160009054906101000a900473ffffffffffffffffffffffffffffffffffffffff16908060000160149054906101000a900460ff16905082565b60026020528060005260406000206000915090508054600181600116156101000203166002900480601f01602080910402602001604051908101604052809291908181526020018280546001816001161561010002031660029004801561119d5780601f106111725761010080835404028352916020019161119d565b820191906000526020600020905b81548152906001019060200180831161118057829003601f168201915b505050505081565b8060008190555050565b60003373ffffffffffffffffffffffffffffffffffffffff16600560008a600019166000191681526020019081526020016000208861ffff168154811015156111f457fe5b906000526020600020900160000160009054906101000a900473ffffffffffffffffffffffffffffffffffffffff1673ffffffffffffffffffffffffffffffffffffffff16148015611291575060011515600560008a600019166000191681526020019081526020016000208861ffff1681548110151561127157fe5b906000526020600020900160000160149054906101000a900460ff161515145b156113ab576080604051908101604052808681526020018581526020018461ffff1681526020016000151581525060066000886000191660001916815260200190815260200160002060008a600019166000191681526020019081526020016000206000846fffffffffffffffffffffffffffffffff19166fffffffffffffffffffffffffffffffff191681526020019081526020016000206000820151816000019080519060200190611346929190611eb9565b506020820151816001019080519060200190611363929190611eb9565b5060408201518160020160006101000a81548161ffff021916908361ffff16021790555060608201518160020160026101000a81548160ff0219169083151502179055509050505b979650505050505050565b60008054905090565b60003373ffffffffffffffffffffffffffffffffffffffff166005600087600019166000191681526020019081526020016000208561ffff1681548110151561140457fe5b906000526020600020900160000160009054906101000a900473ffffffffffffffffffffffffffffffffffffffff1673ffffffffffffffffffffffffffffffffffffffff161480156114a15750600115156005600087600019166000191681526020019081526020016000208561ffff1681548110151561148157fe5b906000526020600020900160000160149054906101000a900460ff161515145b15611536576001600660008760001916600019168152602001908152602001600020600085600019166000191681526020019081526020016000206000846fffffffffffffffffffffffffffffffff19166fffffffffffffffffffffffffffffffff1916815260200190815260200160002060020160026101000a81548160ff0219169083151502179055506001905061153b565b600090505b949350505050565b60036020528060005260406000206000915090508054600181600116156101000203166002900480601f0160208091040260200160405190810160405280929190818152602001828054600181600116156101000203166002900480156115eb5780601f106115c0576101008083540402835291602001916115eb565b820191906000526020600020905b8154815290600101906020018083116115ce57829003601f168201915b505050505081565b60003373ffffffffffffffffffffffffffffffffffffffff166005600088600019166000191681526020019081526020016000208661ffff1681548110151561163857fe5b906000526020600020900160000160009054906101000a900473ffffffffffffffffffffffffffffffffffffffff1673ffffffffffffffffffffffffffffffffffffffff161480156116d55750600115156005600088600019166000191681526020019081526020016000208661ffff168154811015156116b557fe5b906000526020600020900160000160149054906101000a900460ff161515145b156117645782600660008660001916600019168152602001908152602001600020600088600019166000191681526020019081526020016000206000846fffffffffffffffffffffffffffffffff19166fffffffffffffffffffffffffffffffff1916815260200190815260200160002060020160006101000a81548161ffff021916908361ffff1602179055505b95945050505050565b60066020528260005260406000206020528160005260406000206020528060005260406000206000925092505050806000018054600181600116156101000203166002900480601f0160208091040260200160405190810160405280929190818152602001828054600181600116156101000203166002900480156118335780601f1061180857610100808354040283529160200191611833565b820191906000526020600020905b81548152906001019060200180831161181657829003601f168201915b505050505090806001018054600181600116156101000203166002900480601f0160208091040260200160405190810160405280929190818152602001828054600181600116156101000203166002900480156118d15780601f106118a6576101008083540402835291602001916118d1565b820191906000526020600020905b8154815290600101906020018083116118b457829003601f168201915b5050505050908060020160009054906101000a900461ffff16908060020160029054906101000a900460ff16905084565b60046020528060005260406000206000915054906101000a900460ff1681565b60003373ffffffffffffffffffffffffffffffffffffffff166005600087600019166000191681526020019081526020016000208561ffff1681548110151561196757fe5b906000526020600020900160000160009054906101000a900473ffffffffffffffffffffffffffffffffffffffff1673ffffffffffffffffffffffffffffffffffffffff16148015611a045750600115156005600087600019166000191681526020019081526020016000208561ffff168154811015156119e457fe5b906000526020600020900160000160149054906101000a900460ff161515145b15611a99576000600660008760001916600019168152602001908152602001600020600085600019166000191681526020019081526020016000206000846fffffffffffffffffffffffffffffffff19166fffffffffffffffffffffffffffffffff1916815260200190815260200160002060020160026101000a81548160ff02191690831515021790555060019050611a9e565b600090505b949350505050565b60003373ffffffffffffffffffffffffffffffffffffffff166005600086600019166000191681526020019081526020016000208461ffff16815481101515611aeb57fe5b906000526020600020900160000160009054906101000a900473ffffffffffffffffffffffffffffffffffffffff1673ffffffffffffffffffffffffffffffffffffffff16148015611b885750600115156005600086600019166000191681526020019081526020016000208461ffff16815481101515611b6857fe5b906000526020600020900160000160149054906101000a900460ff161515145b15611bc657816002600086600019166000191681526020019081526020016000209080519060200190611bbc929190611de1565b5060019050611bcb565b600090505b9392505050565b60003373ffffffffffffffffffffffffffffffffffffffff166005600086600019166000191681526020019081526020016000208461ffff16815481101515611c1757fe5b906000526020600020900160000160009054906101000a900473ffffffffffffffffffffffffffffffffffffffff1673ffffffffffffffffffffffffffffffffffffffff16148015611cb45750600115156005600086600019166000191681526020019081526020016000208461ffff16815481101515611c9457fe5b906000526020600020900160000160149054906101000a900460ff161515145b15611cf257816003600086600019166000191681526020019081526020016000209080519060200190611ce8929190611de1565b5060019050611cf7565b600090505b9392505050565b6007602052816000526040600020602052806000526040600020600091509150508054600181600116156101000203166002900480601f016020809104026020016040519081016040528092919081815260200182805460018160011615610100020316600290048015611db35780601f10611d8857610100808354040283529160200191611db3565b820191906000526020600020905b815481529060010190602001808311611d9657829003601f168201915b505050505081565b600860009054906101000a900473ffffffffffffffffffffffffffffffffffffffff1681565b828054600181600116156101000203166002900490600052602060002090601f016020900481019282601f10611e2257805160ff1916838001178555611e50565b82800160010185558215611e50579182015b82811115611e4f578251825591602001919060010190611e34565b5b509050611e5d9190611f39565b5090565b815481835581811511611e8857818360005260206000209182019101611e879190611f5e565b5b505050565b815481835581811511611eb457818360005260206000209182019101611eb39190611fb8565b5b505050565b828054600181600116156101000203166002900490600052602060002090601f016020900481019282601f10611efa57805160ff1916838001178555611f28565b82800160010185558215611f28579182015b82811115611f27578251825591602001919060010190611f0c565b5b509050611f359190611f39565b5090565b611f5b91905b80821115611f57576000816000905550600101611f3f565b5090565b90565b611fb591905b80821115611fb157600080820160006101000a81549073ffffffffffffffffffffffffffffffffffffffff02191690556000820160146101000a81549060ff021916905550600101611f64565b5090565b90565b611fda91905b80821115611fd6576000816000905550600101611fbe565b5090565b905600a165627a7a72305820b07785c2e846009772d2f6e0809e39120b2f57a3ebc0cce2c2d5fafb9ce94f2f0029",
  "source": "pragma solidity ^0.4.16;\n\ncontract Identity {\n\n    uint storedData;\n    //Structs\n    struct identityTokenStruct {\n        string verifiedHASH;\n        string encryptedIPFSLink;\n        uint16 validity;\n        bool ownerAccepts;\n    }\n    struct identityAddress {\n        address accountAddress;\n        bool valid;\n    }\n\n\n    //Mappings\n    mapping (address => bytes32[]) public publicKeyToIdentity;\n    mapping (bytes32 => string) public email;\n    mapping (bytes32 => string) public PGPKey;\n    mapping (bytes32 => bool) public validIdentityKeys;\n    mapping (bytes32 => identityAddress[]) public identities;\n\n    //User, Issuer, Certification ID\n    mapping (bytes32 => mapping(bytes32 => mapping(bytes16 => identityTokenStruct))) public identityToken;\n\n\n    //This stuct maps to metadata or IPFS hash that explains what the token is about for people who do not know what the token is\n    mapping (bytes32 => mapping(bytes16 => string)) public tokenMetadata;\n\n\n    address public admin;\n    function Identity() public {\n        admin = msg.sender;\n    }\n    \n    function set(uint x) public {\n        storedData = x;\n    }\n\n    function get() public view returns (uint) {\n        return storedData;\n    }\n    function createIdentity (bytes32 _identityKey) \n        public returns (bool) {\n        if(validIdentityKeys[_identityKey] == false){\n            validIdentityKeys[_identityKey] = true;\n            identities[_identityKey].push(identityAddress(msg.sender, true));\n            publicKeyToIdentity[msg.sender].push(_identityKey);\n            return(true);\n        }\n        else{\n            return(false);\n        }\n    }\n    function addPublicKey (bytes32 _userID, uint16 _position, address newPublicKey) \n        public returns(bool) {\n        if(identities[_userID][_position].accountAddress == msg.sender && identities[_userID][_position].valid == true){\n            identities[_userID].push(identityAddress(newPublicKey, true));\n            publicKeyToIdentity[msg.sender].push(_userID);\n            return(true);\n        }\n        else {\n            return(false);\n        }\n    }\n    function addRawPGPKey (bytes32 _userID, uint16 _position, string _PGPKey) \n        public returns (bool) {\n        if(identities[_userID][_position].accountAddress == msg.sender && identities[_userID][_position].valid == true){\n            PGPKey[_userID] = _PGPKey;\n            return (true);\n        }\n        else {\n            return(false);\n        }\n    }\n\n\n    function issueToken (bytes32 _userID, uint16 _position, bytes32 _issueIDTo, string _verifiedHASH, string _encryptedIPFSLink, uint16 _validity, bytes16 tokenID) \n        public returns (bool) {\n        if(identities[_userID][_position].accountAddress == msg.sender && identities[_userID][_position].valid == true){\n            identityToken[_issueIDTo][_userID][tokenID] = identityTokenStruct(_verifiedHASH, _encryptedIPFSLink, _validity, false);\n        }\n    }\n\n\n    function revokeIssuedToken (bytes32 _userID, uint16 _position, bytes32 _issueIDTo, uint16 _validity, bytes16 tokenID) \n        public returns (bool) {\n        if(identities[_userID][_position].accountAddress == msg.sender && identities[_userID][_position].valid == true){\n            identityToken[_issueIDTo][_userID][tokenID].validity = _validity;\n        }\n    }\n\n\n    function acceptToken (bytes32 _userID, uint16 _position, bytes32 _issuerID, bytes16 _certID) \n        public returns (bool) {\n        if(identities[_userID][_position].accountAddress == msg.sender && identities[_userID][_position].valid == true){\n            identityToken[_userID][_issuerID][_certID].ownerAccepts = true;\n            return true;\n        }\n        return false;\n    }\n\n\n    function revokeToken (bytes32 _userID, uint16 _position, bytes32 _issuerID, bytes16 _certID) \n        public returns (bool) {\n        if(identities[_userID][_position].accountAddress == msg.sender && identities[_userID][_position].valid == true){\n            identityToken[_userID][_issuerID][_certID].ownerAccepts = false;\n            return true;\n        }\n        return false;\n    }\n\n\n    function addTokenMetaData (bytes32 _userID, uint16 _position, bytes16 _certID, string _metaData) \n        public returns (bool) {\n        if(identities[_userID][_position].accountAddress == msg.sender && identities[_userID][_position].valid == true){\n            tokenMetadata[_userID][_certID] = _metaData;\n            return true;\n        }\n        return false;\n    }\n\n\n    function setEmail (bytes32 _userID, uint16 _position, string _email) \n        public returns (bool) {\n        if(identities[_userID][_position].accountAddress == msg.sender && identities[_userID][_position].valid == true){\n            email[_userID] = _email;\n            return true;\n        }\n        return false;\n    }\n}",
  "sourcePath": "/home/paulx230/Projects/UIDP_FrontEnd/contracts/Identity.sol",
  "compiler": {
    "name": "solc",
    "version": "0.4.21+commit.dfe3193c.Emscripten.clang"
  },
  "schemaVersion": "2.0.0",
  "updatedAt": "2018-06-24T07:44:00.580Z"
}